{
  "_format": "hh-sol-artifact-1",
  "contractName": "RabbitCatchMaster",
  "sourceName": "contracts/RabbitCatchMaster.sol",
  "abi": [
    {
      "inputs": [
        {
          "internalType": "contract RabbitRocket",
          "name": "_rabbitRocket",
          "type": "address"
        },
        {
          "internalType": "contract RabbitCreed",
          "name": "_rabbitCreed",
          "type": "address"
        },
        {
          "internalType": "contract RabbitGreed",
          "name": "_rabbitGreed",
          "type": "address"
        },
        {
          "internalType": "contract RabbitFancier",
          "name": "_rabbitFancier",
          "type": "address"
        },
        {
          "internalType": "contract RabbitBreed",
          "name": "_rabbitBreed",
          "type": "address"
        },
        {
          "internalType": "contract CZodiacNFT",
          "name": "_czodiacNFT",
          "type": "address"
        }
      ],
      "stateMutability": "nonpayable",
      "type": "constructor"
    },
    {
      "anonymous": false,
      "inputs": [
        {
          "indexed": false,
          "internalType": "address",
          "name": "userAddress",
          "type": "address"
        },
        {
          "indexed": false,
          "internalType": "address payable",
          "name": "relayerAddress",
          "type": "address"
        },
        {
          "indexed": false,
          "internalType": "bytes",
          "name": "functionSignature",
          "type": "bytes"
        }
      ],
      "name": "MetaTransactionExecuted",
      "type": "event"
    },
    {
      "anonymous": false,
      "inputs": [
        {
          "indexed": true,
          "internalType": "address",
          "name": "previousOwner",
          "type": "address"
        },
        {
          "indexed": true,
          "internalType": "address",
          "name": "newOwner",
          "type": "address"
        }
      ],
      "name": "OwnershipTransferred",
      "type": "event"
    },
    {
      "inputs": [],
      "name": "baseURI",
      "outputs": [
        {
          "internalType": "string",
          "name": "",
          "type": "string"
        }
      ],
      "stateMutability": "view",
      "type": "function"
    },
    {
      "inputs": [
        {
          "internalType": "address",
          "name": "_for",
          "type": "address"
        }
      ],
      "name": "canMint",
      "outputs": [
        {
          "internalType": "bool",
          "name": "_canMint",
          "type": "bool"
        }
      ],
      "stateMutability": "view",
      "type": "function"
    },
    {
      "inputs": [],
      "name": "czodiacNFT",
      "outputs": [
        {
          "internalType": "contract CZodiacNFT",
          "name": "",
          "type": "address"
        }
      ],
      "stateMutability": "view",
      "type": "function"
    },
    {
      "inputs": [
        {
          "internalType": "address",
          "name": "userAddress",
          "type": "address"
        },
        {
          "internalType": "bytes",
          "name": "functionSignature",
          "type": "bytes"
        },
        {
          "internalType": "bytes32",
          "name": "sigR",
          "type": "bytes32"
        },
        {
          "internalType": "bytes32",
          "name": "sigS",
          "type": "bytes32"
        },
        {
          "internalType": "uint8",
          "name": "sigV",
          "type": "uint8"
        }
      ],
      "name": "executeMetaTransaction",
      "outputs": [
        {
          "internalType": "bytes",
          "name": "",
          "type": "bytes"
        }
      ],
      "stateMutability": "payable",
      "type": "function"
    },
    {
      "inputs": [
        {
          "internalType": "address",
          "name": "user",
          "type": "address"
        }
      ],
      "name": "getNonce",
      "outputs": [
        {
          "internalType": "uint256",
          "name": "nonce",
          "type": "uint256"
        }
      ],
      "stateMutability": "view",
      "type": "function"
    },
    {
      "inputs": [],
      "name": "getPrice",
      "outputs": [
        {
          "internalType": "uint256",
          "name": "_price",
          "type": "uint256"
        }
      ],
      "stateMutability": "view",
      "type": "function"
    },
    {
      "inputs": [
        {
          "internalType": "address",
          "name": "_for",
          "type": "address"
        },
        {
          "internalType": "string",
          "name": "_code",
          "type": "string"
        }
      ],
      "name": "mint",
      "outputs": [],
      "stateMutability": "payable",
      "type": "function"
    },
    {
      "inputs": [],
      "name": "mintCount",
      "outputs": [
        {
          "internalType": "uint256",
          "name": "",
          "type": "uint256"
        }
      ],
      "stateMutability": "view",
      "type": "function"
    },
    {
      "inputs": [],
      "name": "mintCountMax",
      "outputs": [
        {
          "internalType": "uint256",
          "name": "",
          "type": "uint256"
        }
      ],
      "stateMutability": "view",
      "type": "function"
    },
    {
      "inputs": [],
      "name": "mintCountPriceIncrement",
      "outputs": [
        {
          "internalType": "uint256",
          "name": "",
          "type": "uint256"
        }
      ],
      "stateMutability": "view",
      "type": "function"
    },
    {
      "inputs": [],
      "name": "owner",
      "outputs": [
        {
          "internalType": "address",
          "name": "",
          "type": "address"
        }
      ],
      "stateMutability": "view",
      "type": "function"
    },
    {
      "inputs": [],
      "name": "priceIncrement",
      "outputs": [
        {
          "internalType": "uint256",
          "name": "",
          "type": "uint256"
        }
      ],
      "stateMutability": "view",
      "type": "function"
    },
    {
      "inputs": [],
      "name": "priceStart",
      "outputs": [
        {
          "internalType": "uint256",
          "name": "",
          "type": "uint256"
        }
      ],
      "stateMutability": "view",
      "type": "function"
    },
    {
      "inputs": [],
      "name": "rabbitBreed",
      "outputs": [
        {
          "internalType": "contract RabbitBreed",
          "name": "",
          "type": "address"
        }
      ],
      "stateMutability": "view",
      "type": "function"
    },
    {
      "inputs": [],
      "name": "rabbitCreed",
      "outputs": [
        {
          "internalType": "contract RabbitCreed",
          "name": "",
          "type": "address"
        }
      ],
      "stateMutability": "view",
      "type": "function"
    },
    {
      "inputs": [],
      "name": "rabbitFancier",
      "outputs": [
        {
          "internalType": "contract RabbitFancier",
          "name": "",
          "type": "address"
        }
      ],
      "stateMutability": "view",
      "type": "function"
    },
    {
      "inputs": [],
      "name": "rabbitGreed",
      "outputs": [
        {
          "internalType": "contract RabbitGreed",
          "name": "",
          "type": "address"
        }
      ],
      "stateMutability": "view",
      "type": "function"
    },
    {
      "inputs": [],
      "name": "rabbitRocket",
      "outputs": [
        {
          "internalType": "contract RabbitRocket",
          "name": "",
          "type": "address"
        }
      ],
      "stateMutability": "view",
      "type": "function"
    },
    {
      "inputs": [],
      "name": "renounceOwnership",
      "outputs": [],
      "stateMutability": "nonpayable",
      "type": "function"
    },
    {
      "inputs": [
        {
          "internalType": "address[]",
          "name": "_addr",
          "type": "address[]"
        }
      ],
      "name": "setWhitelistedAll",
      "outputs": [],
      "stateMutability": "nonpayable",
      "type": "function"
    },
    {
      "inputs": [
        {
          "internalType": "address",
          "name": "newOwner",
          "type": "address"
        }
      ],
      "name": "transferOwnership",
      "outputs": [],
      "stateMutability": "nonpayable",
      "type": "function"
    },
    {
      "inputs": [
        {
          "internalType": "address",
          "name": "_addr",
          "type": "address"
        },
        {
          "internalType": "bool",
          "name": "_val",
          "type": "bool"
        }
      ],
      "name": "updateWhitelist",
      "outputs": [],
      "stateMutability": "nonpayable",
      "type": "function"
    },
    {
      "inputs": [
        {
          "internalType": "address",
          "name": "",
          "type": "address"
        }
      ],
      "name": "whitelist",
      "outputs": [
        {
          "internalType": "bool",
          "name": "",
          "type": "bool"
        }
      ],
      "stateMutability": "view",
      "type": "function"
    },
    {
      "inputs": [],
      "name": "whitelistMintCap",
      "outputs": [
        {
          "internalType": "uint256",
          "name": "",
          "type": "uint256"
        }
      ],
      "stateMutability": "view",
      "type": "function"
    }
  ],
  "bytecode": "0x60806040523480156200001157600080fd5b5060405162001dff38038062001dff833981016040819052620000349162000205565b6040518060400160405280601e81526020017f4052616262697443617463682f52616262697443617463684d61737465720000815250604051806040016040528060058152602001640312e302e360dc1b8152508181620000a46200009e620001ad60201b60201c565b620001b1565b6040518060800160405280604f815260200162001db0604f9139805190602001208280519060200120828051906020012030620000e66200020160201b60201c565b60408051602081019690965285019390935260608401919091526001600160a01b0316608083015260a082015260c00160408051808303601f19018152919052805160209091012060019081556003555050600480546001600160a01b03199081166001600160a01b039a8b1617909155600580548216988a169890981790975550506006805486169487169490941790935560078054851692861692909217909155600880548416918516919091179055600980549092169216919091179055620002b1565b3390565b600080546001600160a01b038381166001600160a01b0319831681178455604051919092169283917f8be0079c531659141344cd1fd0a4f28419497f9722a3daafe3b4186f6b6457e09190a35050565b4690565b60008060008060008060c087890312156200021e578182fd5b86516200022b8162000298565b60208801519096506200023e8162000298565b6040880151909550620002518162000298565b6060880151909450620002648162000298565b6080880151909350620002778162000298565b60a08801519092506200028a8162000298565b809150509295509295509295565b6001600160a01b0381168114620002ae57600080fd5b50565b611aef80620002c16000396000f3fe60806040526004361061014b5760003560e01c806394b86f35116100b6578063c2ba47441161006f578063c2ba474414610397578063d0def521146103b7578063de351b89146103ca578063e7ad0257146103ea578063ee16d367146103ff578063f2fde38b1461041557600080fd5b806394b86f35146102cc5780639659867e146102ec57806398d5fdca146103025780639b19251a146103175780639c2d7bb714610357578063b9a8b6db1461037757600080fd5b80632c095f0b116101085780632c095f0b1461020e5780632d0335ab1461022e5780636c0360eb14610264578063715018a61461027957806387bcf5991461028e5780638da5cb5b146102ae57600080fd5b8063093a7ea5146101505780630c53c51c1461018d5780630d392cd9146101ad578063173067a3146101cf578063280d62ac146101cf5780632a4e57a1146101f9575b600080fd5b34801561015c57600080fd5b50600654610170906001600160a01b031681565b6040516001600160a01b0390911681526020015b60405180910390f35b6101a061019b36600461157e565b610435565b6040516101849190611896565b3480156101b957600080fd5b506101cd6101c8366004611548565b6106b1565b005b3480156101db57600080fd5b506101eb67016345785d8a000081565b604051908152602001610184565b34801561020557600080fd5b506101eb606481565b34801561021a57600080fd5b50600954610170906001600160a01b031681565b34801561023a57600080fd5b506101eb610249366004611527565b6001600160a01b031660009081526002602052604090205490565b34801561027057600080fd5b506101a0610706565b34801561028557600080fd5b506101cd610722565b34801561029a57600080fd5b50600754610170906001600160a01b031681565b3480156102ba57600080fd5b506000546001600160a01b0316610170565b3480156102d857600080fd5b50600554610170906001600160a01b031681565b3480156102f857600080fd5b506101eb600a5481565b34801561030e57600080fd5b506101eb610758565b34801561032357600080fd5b50610347610332366004611527565b600b6020526000908152604090205460ff1681565b6040519015158152602001610184565b34801561036357600080fd5b506101cd6103723660046116db565b610792565b34801561038357600080fd5b50600854610170906001600160a01b031681565b3480156103a357600080fd5b506103476103b2366004611527565b61081d565b6101cd6103c536600461165d565b610a85565b3480156103d657600080fd5b50600454610170906001600160a01b031681565b3480156103f657600080fd5b506101eb600581565b34801561040b57600080fd5b506101eb6109c481565b34801561042157600080fd5b506101cd610430366004611527565b611034565b60606000610442866110cf565b90506000356001600160e01b031990811690821614156104cf5760405162461bcd60e51b815260206004820152603d60248201527f66756e6374696f6e5369676e61747572652063616e206e6f74206265206f662060448201527f657865637574654d6574615472616e73616374696f6e206d6574686f6400000060648201526084015b60405180910390fd5b604080516060810182526001600160a01b0389166000818152600260209081529084902054835282015290810187905261050c88828888886110eb565b6105625760405162461bcd60e51b815260206004820152602160248201527f5369676e657220616e64207369676e617475726520646f206e6f74206d6174636044820152600d60fb1b60648201526084016104c6565b6001600160a01b03881660009081526002602052604090205461058690600161192f565b6001600160a01b03891660009081526002602090815260408083209390935591519091829130916105bb918c918e91016117eb565b60408051601f19818403018152908290526105d5916117cf565b6000604051808303816000865af19150503d8060008114610612576040519150601f19603f3d011682016040523d82523d6000602084013e610617565b606091505b5091509150816106695760405162461bcd60e51b815260206004820152601c60248201527f46756e6374696f6e2063616c6c206e6f74207375636365737366756c0000000060448201526064016104c6565b7f5845892132946850460bff5a0083f71031bc5bf9aadcd40f1de79423eac9b10b8a338b60405161069c93929190611861565b60405180910390a19998505050505050505050565b6000546001600160a01b031633146106db5760405162461bcd60e51b81526004016104c6906118fa565b6001600160a01b03919091166000908152600b60205260409020805460ff1916911515919091179055565b604051806060016040528060368152602001611a416036913981565b6000546001600160a01b0316331461074c5760405162461bcd60e51b81526004016104c6906118fa565b61075660006111c7565b565b60006064600a546107699190611947565b61077b9067016345785d8a000061195b565b61078d9067016345785d8a000061192f565b905090565b6000546001600160a01b031633146107bc5760405162461bcd60e51b81526004016104c6906118fa565b60005b81811015610818576108068383838181106107ea57634e487b7160e01b600052603260045260246000fd5b90506020020160208101906107ff9190611527565b60016106b1565b80610810816119c1565b9150506107bf565b505050565b60006109c4600a541061083257506000919050565b600480546040805163b4bd9e2760e01b815290516001600160a01b039092169263b4bd9e27928282019260209290829003018186803b15801561087457600080fd5b505afa158015610888573d6000803e3d6000fd5b505050506040513d601f19601f820116820180604052508101906108ac919061174b565b156108b957506000919050565b6004805460408051632a239b7360e11b815290516001600160a01b039092169263544736e6928282019260209290829003018186803b1580156108fb57600080fd5b505afa15801561090f573d6000803e3d6000fd5b505050506040513d601f19601f82011682018060405250810190610933919061174b565b61093f57506000919050565b6004805460408051639263592360e01b815290516001600160a01b03909216926392635923928282019260209290829003018186803b15801561098157600080fd5b505afa158015610995573d6000803e3d6000fd5b505050506040513d601f19601f820116820180604052508101906109b9919061177f565b63ffffffff16421015610a78576001600160a01b0382166000908152600b602052604090205460ff1615610a7057600654604051621340e760e21b81526001600160a01b0384811660048301526005921690624d039c9060240160206040518083038186803b158015610a2b57600080fd5b505afa158015610a3f573d6000803e3d6000fd5b505050506040513d601f19601f82011682018060405250810190610a63919061177f565b63ffffffff161092915050565b506000919050565b506001919050565b919050565b60026003541415610ad85760405162461bcd60e51b815260206004820152601f60248201527f5265656e7472616e637947756172643a207265656e7472616e742063616c6c0060448201526064016104c6565b6002600355610ae68361081d565b610b325760405162461bcd60e51b815260206004820152601e60248201527f52616262697443617463684d61737465723a2043616e6e6f74204d696e74000060448201526064016104c6565b610b3a610758565b3414610b945760405162461bcd60e51b8152602060048201526024808201527f52616262697443617463684d61737465723a20496e76616c696420424e422056604482015263616c756560e01b60648201526084016104c6565b600954604080516060810190915260368082526001600160a01b039092169163056b01ce9190611a416020830139610bd9600a546001610bd4919061192f565b611217565b604051602001610bea929190611822565b60405160208183030381529060405260036040518363ffffffff1660e01b8152600401610c189291906118d8565b600060405180830381600087803b158015610c3257600080fd5b505af1158015610c46573d6000803e3d6000fd5b5050600954604080516318160ddd60e01b815290516001600160a01b0390921693506342842e0e92503091879160019186916318160ddd916004808301926020929190829003018186803b158015610c9d57600080fd5b505afa158015610cb1573d6000803e3d6000fd5b505050506040513d601f19601f82011682018060405250810190610cd59190611767565b610cdf919061197a565b6040516001600160e01b031960e086901b1681526001600160a01b0393841660048201529290911660248301526044820152606401600060405180830381600087803b158015610d2e57600080fd5b505af1158015610d42573d6000803e3d6000fd5b505050506000600a34610d559190611947565b6004805460405163235c50a160e11b81526001600160a01b038881169382019390935292935016906346b8a1429083906024016000604051808303818588803b158015610da157600080fd5b505af1158015610db5573d6000803e3d6000fd5b5050508315801592509050610e47575060055460405163951f18ab60e01b81526001600160a01b039091169063951f18ab90610df790869086906004016118a9565b60206040518083038186803b158015610e0f57600080fd5b505afa158015610e23573d6000803e3d6000fd5b505050506040513d601f19601f82011682018060405250810190610e47919061174b565b15610eb35760055460405163e5de1e1f60e01b81526001600160a01b039091169063e5de1e1f908390610e8090879087906004016118a9565b6000604051808303818588803b158015610e9957600080fd5b505af1158015610ead573d6000803e3d6000fd5b50505050505b600654604051632f5d525960e21b81526001600160a01b038681166004830152600160248301529091169063bd7549649083906044016000604051808303818588803b158015610f0257600080fd5b505af1158015610f16573d6000803e3d6000fd5b5050505050600760009054906101000a90046001600160a01b03166001600160a01b0316631b7101e2826040518263ffffffff1660e01b81526004016000604051808303818588803b158015610f6b57600080fd5b505af1158015610f7f573d6000803e3d6000fd5b5050505050600860009054906101000a90046001600160a01b03166001600160a01b0316631b7101e2826040518263ffffffff1660e01b81526004016000604051808303818588803b158015610fd457600080fd5b505af1158015610fe8573d6000803e3d6000fd5b5050600a80549350915060009050610fff836119c1565b91905055506110294761101a6000546001600160a01b031690565b6001600160a01b031690611339565b505060016003555050565b6000546001600160a01b0316331461105e5760405162461bcd60e51b81526004016104c6906118fa565b6001600160a01b0381166110c35760405162461bcd60e51b815260206004820152602660248201527f4f776e61626c653a206e6577206f776e657220697320746865207a65726f206160448201526564647265737360d01b60648201526084016104c6565b6110cc816111c7565b50565b60008151600014156110e357506000919050565b506020015190565b60008060016111016110fc88611452565b6114cf565b6040805160008152602081018083529290925260ff861690820152606081018790526080810186905260a0016020604051602081039080840390855afa15801561114f573d6000803e3d6000fd5b5050604051601f1901519150506001600160a01b0381166111a65760405162461bcd60e51b8152602060048201526011602482015270496e76616c6964207369676e617475726560781b60448201526064016104c6565b866001600160a01b0316816001600160a01b03161491505095945050505050565b600080546001600160a01b038381166001600160a01b0319831681178455604051919092169283917f8be0079c531659141344cd1fd0a4f28419497f9722a3daafe3b4186f6b6457e09190a35050565b60608161123b5750506040805180820190915260018152600360fc1b602082015290565b8160005b8115611265578061124f816119c1565b915061125e9050600a83611947565b915061123f565b60008167ffffffffffffffff81111561128e57634e487b7160e01b600052604160045260246000fd5b6040519080825280601f01601f1916602001820160405280156112b8576020820181803683370190505b5090505b8415611331576112cd60018361197a565b91506112da600a866119dc565b6112e590603061192f565b60f81b81838151811061130857634e487b7160e01b600052603260045260246000fd5b60200101906001600160f81b031916908160001a90535061132a600a86611947565b94506112bc565b949350505050565b804710156113895760405162461bcd60e51b815260206004820152601d60248201527f416464726573733a20696e73756666696369656e742062616c616e636500000060448201526064016104c6565b6000826001600160a01b03168260405160006040518083038185875af1925050503d80600081146113d6576040519150601f19603f3d011682016040523d82523d6000602084013e6113db565b606091505b50509050806108185760405162461bcd60e51b815260206004820152603a60248201527f416464726573733a20756e61626c6520746f2073656e642076616c75652c207260448201527f6563697069656e74206d6179206861766520726576657274656400000000000060648201526084016104c6565b6000604051806080016040528060438152602001611a7760439139805160209182012083518483015160408087015180519086012090516114b2950193845260208401929092526001600160a01b03166040830152606082015260800190565b604051602081830303815290604052805190602001209050919050565b60006114da60015490565b60405161190160f01b60208201526022810191909152604281018390526062016114b2565b80356001600160a01b0381168114610a8057600080fd5b803560ff81168114610a8057600080fd5b600060208284031215611538578081fd5b611541826114ff565b9392505050565b6000806040838503121561155a578081fd5b611563836114ff565b9150602083013561157381611a32565b809150509250929050565b600080600080600060a08688031215611595578081fd5b61159e866114ff565b9450602086013567ffffffffffffffff808211156115ba578283fd5b818801915088601f8301126115cd578283fd5b8135818111156115df576115df611a1c565b604051601f8201601f19908116603f0116810190838211818310171561160757611607611a1c565b816040528281528b602084870101111561161f578586fd5b826020860160208301379182016020018590525095505050604086013592506060860135915061165160808701611516565b90509295509295909350565b600080600060408486031215611671578283fd5b61167a846114ff565b9250602084013567ffffffffffffffff80821115611696578384fd5b818601915086601f8301126116a9578384fd5b8135818111156116b7578485fd5b8760208285010111156116c8578485fd5b6020830194508093505050509250925092565b600080602083850312156116ed578182fd5b823567ffffffffffffffff80821115611704578384fd5b818501915085601f830112611717578384fd5b813581811115611725578485fd5b8660208260051b8501011115611739578485fd5b60209290920196919550909350505050565b60006020828403121561175c578081fd5b815161154181611a32565b600060208284031215611778578081fd5b5051919050565b600060208284031215611790578081fd5b815163ffffffff81168114611541578182fd5b600081518084526117bb816020860160208601611991565b601f01601f19169290920160200192915050565b600082516117e1818460208701611991565b9190910192915050565b600083516117fd818460208801611991565b60609390931b6bffffffffffffffffffffffff19169190920190815260140192915050565b60008351611834818460208801611991565b835190830190611848818360208801611991565b64173539b7b760d91b9101908152600501949350505050565b6001600160a01b0384811682528316602082015260606040820181905260009061188d908301846117a3565b95945050505050565b60208152600061154160208301846117a3565b60208152816020820152818360408301376000818301604090810191909152601f909201601f19160101919050565b6040815260006118eb60408301856117a3565b90508260208301529392505050565b6020808252818101527f4f776e61626c653a2063616c6c6572206973206e6f7420746865206f776e6572604082015260600190565b60008219821115611942576119426119f0565b500190565b60008261195657611956611a06565b500490565b6000816000190483118215151615611975576119756119f0565b500290565b60008282101561198c5761198c6119f0565b500390565b60005b838110156119ac578181015183820152602001611994565b838111156119bb576000848401525b50505050565b60006000198214156119d5576119d56119f0565b5060010190565b6000826119eb576119eb611a06565b500690565b634e487b7160e01b600052601160045260246000fd5b634e487b7160e01b600052601260045260246000fd5b634e487b7160e01b600052604160045260246000fd5b80151581146110cc57600080fdfe697066733a2f2f516d5a6d46346154644b74527a466a35705a75394d76417370446963395a36543131796d6f666e416956374773762f4d6574615472616e73616374696f6e2875696e74323536206e6f6e63652c616464726573732066726f6d2c62797465732066756e6374696f6e5369676e617475726529a26469706673582212202a9b341b3fd74d5cb721cf03a3fd8bfdfe0a733edc115a8e84de7516d8807bcc64736f6c63430008040033454950373132446f6d61696e28737472696e67206e616d652c737472696e672076657273696f6e2c6164647265737320766572696679696e67436f6e74726163742c627974657333322073616c7429",
  "linkReferences": {},
  "deployedLinkReferences": {}
}