{
  "_format": "hh-sol-artifact-1",
  "contractName": "RabbitMinterV2",
  "sourceName": "contracts/RabbitMinterv2.sol",
  "abi": [
    {
      "inputs": [],
      "stateMutability": "nonpayable",
      "type": "constructor"
    },
    {
      "anonymous": false,
      "inputs": [
        {
          "indexed": true,
          "internalType": "address",
          "name": "previousOwner",
          "type": "address"
        },
        {
          "indexed": true,
          "internalType": "address",
          "name": "newOwner",
          "type": "address"
        }
      ],
      "name": "OwnershipTransferred",
      "type": "event"
    },
    {
      "inputs": [],
      "name": "baseURI",
      "outputs": [
        {
          "internalType": "string",
          "name": "",
          "type": "string"
        }
      ],
      "stateMutability": "view",
      "type": "function"
    },
    {
      "inputs": [],
      "name": "canMint",
      "outputs": [
        {
          "internalType": "bool",
          "name": "_canMint",
          "type": "bool"
        }
      ],
      "stateMutability": "view",
      "type": "function"
    },
    {
      "inputs": [],
      "name": "czodiacNFT",
      "outputs": [
        {
          "internalType": "contract CZodiacNFT",
          "name": "",
          "type": "address"
        }
      ],
      "stateMutability": "view",
      "type": "function"
    },
    {
      "inputs": [],
      "name": "getPrice",
      "outputs": [
        {
          "internalType": "uint256",
          "name": "_price",
          "type": "uint256"
        }
      ],
      "stateMutability": "view",
      "type": "function"
    },
    {
      "inputs": [
        {
          "internalType": "address",
          "name": "_for",
          "type": "address"
        }
      ],
      "name": "mint",
      "outputs": [],
      "stateMutability": "payable",
      "type": "function"
    },
    {
      "inputs": [],
      "name": "mintCount",
      "outputs": [
        {
          "internalType": "uint256",
          "name": "",
          "type": "uint256"
        }
      ],
      "stateMutability": "view",
      "type": "function"
    },
    {
      "inputs": [],
      "name": "mintCountMax",
      "outputs": [
        {
          "internalType": "uint256",
          "name": "",
          "type": "uint256"
        }
      ],
      "stateMutability": "view",
      "type": "function"
    },
    {
      "inputs": [],
      "name": "mintCountPriceIncrement",
      "outputs": [
        {
          "internalType": "uint256",
          "name": "",
          "type": "uint256"
        }
      ],
      "stateMutability": "view",
      "type": "function"
    },
    {
      "inputs": [],
      "name": "owner",
      "outputs": [
        {
          "internalType": "address",
          "name": "",
          "type": "address"
        }
      ],
      "stateMutability": "view",
      "type": "function"
    },
    {
      "inputs": [],
      "name": "priceIncrement",
      "outputs": [
        {
          "internalType": "uint256",
          "name": "",
          "type": "uint256"
        }
      ],
      "stateMutability": "view",
      "type": "function"
    },
    {
      "inputs": [],
      "name": "priceStart",
      "outputs": [
        {
          "internalType": "uint256",
          "name": "",
          "type": "uint256"
        }
      ],
      "stateMutability": "view",
      "type": "function"
    },
    {
      "inputs": [],
      "name": "renounceOwnership",
      "outputs": [],
      "stateMutability": "nonpayable",
      "type": "function"
    },
    {
      "inputs": [
        {
          "internalType": "uint256",
          "name": "_to",
          "type": "uint256"
        }
      ],
      "name": "setPriceIncrement",
      "outputs": [],
      "stateMutability": "nonpayable",
      "type": "function"
    },
    {
      "inputs": [
        {
          "internalType": "uint256",
          "name": "_to",
          "type": "uint256"
        }
      ],
      "name": "setPriceStart",
      "outputs": [],
      "stateMutability": "nonpayable",
      "type": "function"
    },
    {
      "inputs": [
        {
          "internalType": "address",
          "name": "newOwner",
          "type": "address"
        }
      ],
      "name": "transferOwnership",
      "outputs": [],
      "stateMutability": "nonpayable",
      "type": "function"
    }
  ],
  "bytecode": "0x608060405267016345785d8a000060015567016345785d8a000060025561014b60035534801561002e57600080fd5b506100383361003d565b61008d565b600080546001600160a01b038381166001600160a01b0319831681178455604051919092169283917f8be0079c531659141344cd1fd0a4f28419497f9722a3daafe3b4186f6b6457e09190a35050565b610c1f8061009c6000396000f3fe6080604052600436106100e85760003560e01c8063715018a61161008a578063beb9716d11610059578063beb9716d14610236578063e3a3c11e1461025a578063ee16d3671461027a578063f2fde38b1461029057600080fd5b8063715018a6146101d85780638da5cb5b146101ed5780639659867e1461020b57806398d5fdca1461022157600080fd5b80632c095f0b116100c65780632c095f0b146101415780634905269c146101815780636a627842146101a35780636c0360eb146101b657600080fd5b8063173067a3146100ed578063280d62ac146101165780632a4e57a11461012c575b600080fd5b3480156100f957600080fd5b5061010360015481565b6040519081526020015b60405180910390f35b34801561012257600080fd5b5061010360025481565b34801561013857600080fd5b50610103606481565b34801561014d57600080fd5b50610169736bf5843b39eb6d5d7ee38c0b789ccde42fe396b481565b6040516001600160a01b03909116815260200161010d565b34801561018d57600080fd5b506101a161019c3660046109c1565b6102b0565b005b6101a16101b1366004610993565b6102e8565b3480156101c257600080fd5b506101cb6105ba565b60405161010d9190610a5c565b3480156101e457600080fd5b506101a16105d6565b3480156101f957600080fd5b506000546001600160a01b0316610169565b34801561021757600080fd5b5061010360035481565b34801561022d57600080fd5b5061010361060c565b34801561024257600080fd5b506003546109c411604051901515815260200161010d565b34801561026657600080fd5b506101a16102753660046109c1565b61063c565b34801561028657600080fd5b506101036109c481565b34801561029c57600080fd5b506101a16102ab366004610993565b61066b565b6000546001600160a01b031633146102e35760405162461bcd60e51b81526004016102da90610a91565b60405180910390fd5b600255565b6003546109c41161033b5760405162461bcd60e51b815260206004820152601b60248201527f5261626269744d696e74657256323a2043616e6e6f74204d696e74000000000060448201526064016102da565b61034361060c565b341461039b5760405162461bcd60e51b815260206004820152602160248201527f5261626269744d696e74657256323a20496e76616c696420424e422056616c756044820152606560f81b60648201526084016102da565b736bf5843b39eb6d5d7ee38c0b789ccde42fe396b46001600160a01b031663056b01ce604051806060016040528060368152602001610bb4603691396103ee60035460016103e99190610ac6565b610703565b6040516020016103ff929190610a1d565b60405160208183030381529060405260036040518363ffffffff1660e01b815260040161042d929190610a6f565b600060405180830381600087803b15801561044757600080fd5b505af115801561045b573d6000803e3d6000fd5b50505050736bf5843b39eb6d5d7ee38c0b789ccde42fe396b46001600160a01b03166342842e0e30836001736bf5843b39eb6d5d7ee38c0b789ccde42fe396b46001600160a01b03166318160ddd6040518163ffffffff1660e01b815260040160206040518083038186803b1580156104d357600080fd5b505afa1580156104e7573d6000803e3d6000fd5b505050506040513d601f19601f8201168201806040525081019061050b91906109d9565b6105159190610b11565b6040516001600160e01b031960e086901b1681526001600160a01b0393841660048201529290911660248301526044820152606401600060405180830381600087803b15801561056457600080fd5b505af1158015610578573d6000803e3d6000fd5b50506003805492509050600061058d83610b58565b91905055506105b7476105a86000546001600160a01b031690565b6001600160a01b031690610825565b50565b604051806060016040528060368152602001610bb46036913981565b6000546001600160a01b031633146106005760405162461bcd60e51b81526004016102da90610a91565b61060a6000610943565b565b6000606460035461061d9190610ade565b60025461062a9190610af2565b6001546106379190610ac6565b905090565b6000546001600160a01b031633146106665760405162461bcd60e51b81526004016102da90610a91565b600155565b6000546001600160a01b031633146106955760405162461bcd60e51b81526004016102da90610a91565b6001600160a01b0381166106fa5760405162461bcd60e51b815260206004820152602660248201527f4f776e61626c653a206e6577206f776e657220697320746865207a65726f206160448201526564647265737360d01b60648201526084016102da565b6105b781610943565b6060816107275750506040805180820190915260018152600360fc1b602082015290565b8160005b8115610751578061073b81610b58565b915061074a9050600a83610ade565b915061072b565b60008167ffffffffffffffff81111561077a57634e487b7160e01b600052604160045260246000fd5b6040519080825280601f01601f1916602001820160405280156107a4576020820181803683370190505b5090505b841561081d576107b9600183610b11565b91506107c6600a86610b73565b6107d1906030610ac6565b60f81b8183815181106107f457634e487b7160e01b600052603260045260246000fd5b60200101906001600160f81b031916908160001a905350610816600a86610ade565b94506107a8565b949350505050565b804710156108755760405162461bcd60e51b815260206004820152601d60248201527f416464726573733a20696e73756666696369656e742062616c616e636500000060448201526064016102da565b6000826001600160a01b03168260405160006040518083038185875af1925050503d80600081146108c2576040519150601f19603f3d011682016040523d82523d6000602084013e6108c7565b606091505b505090508061093e5760405162461bcd60e51b815260206004820152603a60248201527f416464726573733a20756e61626c6520746f2073656e642076616c75652c207260448201527f6563697069656e74206d6179206861766520726576657274656400000000000060648201526084016102da565b505050565b600080546001600160a01b038381166001600160a01b0319831681178455604051919092169283917f8be0079c531659141344cd1fd0a4f28419497f9722a3daafe3b4186f6b6457e09190a35050565b6000602082840312156109a4578081fd5b81356001600160a01b03811681146109ba578182fd5b9392505050565b6000602082840312156109d2578081fd5b5035919050565b6000602082840312156109ea578081fd5b5051919050565b60008151808452610a09816020860160208601610b28565b601f01601f19169290920160200192915050565b60008351610a2f818460208801610b28565b835190830190610a43818360208801610b28565b64173539b7b760d91b9101908152600501949350505050565b6020815260006109ba60208301846109f1565b604081526000610a8260408301856109f1565b90508260208301529392505050565b6020808252818101527f4f776e61626c653a2063616c6c6572206973206e6f7420746865206f776e6572604082015260600190565b60008219821115610ad957610ad9610b87565b500190565b600082610aed57610aed610b9d565b500490565b6000816000190483118215151615610b0c57610b0c610b87565b500290565b600082821015610b2357610b23610b87565b500390565b60005b83811015610b43578181015183820152602001610b2b565b83811115610b52576000848401525b50505050565b6000600019821415610b6c57610b6c610b87565b5060010190565b600082610b8257610b82610b9d565b500690565b634e487b7160e01b600052601160045260246000fd5b634e487b7160e01b600052601260045260246000fdfe697066733a2f2f516d5a6d46346154644b74527a466a35705a75394d76417370446963395a36543131796d6f666e416956374773762fa26469706673582212206bf4395e42067f2754301ee056e35b04a0a7fc68336999c8c8026806e27c212f64736f6c63430008040033",
  "linkReferences": {},
  "deployedLinkReferences": {}
}