{
  "_format": "hh-sol-artifact-1",
  "contractName": "RabbitBreed",
  "sourceName": "contracts/RabbitBreed.sol",
  "abi": [
    {
      "inputs": [
        {
          "internalType": "contract RabbitRocket",
          "name": "_rabbitRocket",
          "type": "address"
        }
      ],
      "stateMutability": "nonpayable",
      "type": "constructor"
    },
    {
      "anonymous": false,
      "inputs": [
        {
          "indexed": false,
          "internalType": "address",
          "name": "userAddress",
          "type": "address"
        },
        {
          "indexed": false,
          "internalType": "address payable",
          "name": "relayerAddress",
          "type": "address"
        },
        {
          "indexed": false,
          "internalType": "bytes",
          "name": "functionSignature",
          "type": "bytes"
        }
      ],
      "name": "MetaTransactionExecuted",
      "type": "event"
    },
    {
      "anonymous": false,
      "inputs": [
        {
          "indexed": true,
          "internalType": "address",
          "name": "previousOwner",
          "type": "address"
        },
        {
          "indexed": true,
          "internalType": "address",
          "name": "newOwner",
          "type": "address"
        }
      ],
      "name": "OwnershipTransferred",
      "type": "event"
    },
    {
      "anonymous": false,
      "inputs": [
        {
          "indexed": true,
          "internalType": "bytes32",
          "name": "role",
          "type": "bytes32"
        },
        {
          "indexed": true,
          "internalType": "bytes32",
          "name": "previousAdminRole",
          "type": "bytes32"
        },
        {
          "indexed": true,
          "internalType": "bytes32",
          "name": "newAdminRole",
          "type": "bytes32"
        }
      ],
      "name": "RoleAdminChanged",
      "type": "event"
    },
    {
      "anonymous": false,
      "inputs": [
        {
          "indexed": true,
          "internalType": "bytes32",
          "name": "role",
          "type": "bytes32"
        },
        {
          "indexed": true,
          "internalType": "address",
          "name": "account",
          "type": "address"
        },
        {
          "indexed": true,
          "internalType": "address",
          "name": "sender",
          "type": "address"
        }
      ],
      "name": "RoleGranted",
      "type": "event"
    },
    {
      "anonymous": false,
      "inputs": [
        {
          "indexed": true,
          "internalType": "bytes32",
          "name": "role",
          "type": "bytes32"
        },
        {
          "indexed": true,
          "internalType": "address",
          "name": "account",
          "type": "address"
        },
        {
          "indexed": true,
          "internalType": "address",
          "name": "sender",
          "type": "address"
        }
      ],
      "name": "RoleRevoked",
      "type": "event"
    },
    {
      "inputs": [],
      "name": "DEFAULT_ADMIN_ROLE",
      "outputs": [
        {
          "internalType": "bytes32",
          "name": "",
          "type": "bytes32"
        }
      ],
      "stateMutability": "view",
      "type": "function"
    },
    {
      "inputs": [],
      "name": "MASTER_ROLE",
      "outputs": [
        {
          "internalType": "bytes32",
          "name": "",
          "type": "bytes32"
        }
      ],
      "stateMutability": "view",
      "type": "function"
    },
    {
      "inputs": [],
      "name": "addToRewards",
      "outputs": [],
      "stateMutability": "payable",
      "type": "function"
    },
    {
      "inputs": [
        {
          "internalType": "address",
          "name": "userAddress",
          "type": "address"
        },
        {
          "internalType": "bytes",
          "name": "functionSignature",
          "type": "bytes"
        },
        {
          "internalType": "bytes32",
          "name": "sigR",
          "type": "bytes32"
        },
        {
          "internalType": "bytes32",
          "name": "sigS",
          "type": "bytes32"
        },
        {
          "internalType": "uint8",
          "name": "sigV",
          "type": "uint8"
        }
      ],
      "name": "executeMetaTransaction",
      "outputs": [
        {
          "internalType": "bytes",
          "name": "",
          "type": "bytes"
        }
      ],
      "stateMutability": "payable",
      "type": "function"
    },
    {
      "inputs": [
        {
          "internalType": "address",
          "name": "user",
          "type": "address"
        }
      ],
      "name": "getNonce",
      "outputs": [
        {
          "internalType": "uint256",
          "name": "nonce",
          "type": "uint256"
        }
      ],
      "stateMutability": "view",
      "type": "function"
    },
    {
      "inputs": [
        {
          "internalType": "bytes32",
          "name": "role",
          "type": "bytes32"
        }
      ],
      "name": "getRoleAdmin",
      "outputs": [
        {
          "internalType": "bytes32",
          "name": "",
          "type": "bytes32"
        }
      ],
      "stateMutability": "view",
      "type": "function"
    },
    {
      "inputs": [
        {
          "internalType": "bytes32",
          "name": "role",
          "type": "bytes32"
        },
        {
          "internalType": "uint256",
          "name": "index",
          "type": "uint256"
        }
      ],
      "name": "getRoleMember",
      "outputs": [
        {
          "internalType": "address",
          "name": "",
          "type": "address"
        }
      ],
      "stateMutability": "view",
      "type": "function"
    },
    {
      "inputs": [
        {
          "internalType": "bytes32",
          "name": "role",
          "type": "bytes32"
        }
      ],
      "name": "getRoleMemberCount",
      "outputs": [
        {
          "internalType": "uint256",
          "name": "",
          "type": "uint256"
        }
      ],
      "stateMutability": "view",
      "type": "function"
    },
    {
      "inputs": [
        {
          "internalType": "bytes32",
          "name": "role",
          "type": "bytes32"
        },
        {
          "internalType": "address",
          "name": "account",
          "type": "address"
        }
      ],
      "name": "grantRole",
      "outputs": [],
      "stateMutability": "nonpayable",
      "type": "function"
    },
    {
      "inputs": [
        {
          "internalType": "bytes32",
          "name": "role",
          "type": "bytes32"
        },
        {
          "internalType": "address",
          "name": "account",
          "type": "address"
        }
      ],
      "name": "hasRole",
      "outputs": [
        {
          "internalType": "bool",
          "name": "",
          "type": "bool"
        }
      ],
      "stateMutability": "view",
      "type": "function"
    },
    {
      "inputs": [],
      "name": "owner",
      "outputs": [
        {
          "internalType": "address",
          "name": "",
          "type": "address"
        }
      ],
      "stateMutability": "view",
      "type": "function"
    },
    {
      "inputs": [
        {
          "internalType": "address",
          "name": "dest",
          "type": "address"
        }
      ],
      "name": "payments",
      "outputs": [
        {
          "internalType": "uint256",
          "name": "",
          "type": "uint256"
        }
      ],
      "stateMutability": "view",
      "type": "function"
    },
    {
      "inputs": [],
      "name": "renounceOwnership",
      "outputs": [],
      "stateMutability": "nonpayable",
      "type": "function"
    },
    {
      "inputs": [
        {
          "internalType": "bytes32",
          "name": "role",
          "type": "bytes32"
        },
        {
          "internalType": "address",
          "name": "account",
          "type": "address"
        }
      ],
      "name": "renounceRole",
      "outputs": [],
      "stateMutability": "nonpayable",
      "type": "function"
    },
    {
      "inputs": [
        {
          "internalType": "bytes32",
          "name": "role",
          "type": "bytes32"
        },
        {
          "internalType": "address",
          "name": "account",
          "type": "address"
        }
      ],
      "name": "revokeRole",
      "outputs": [],
      "stateMutability": "nonpayable",
      "type": "function"
    },
    {
      "inputs": [
        {
          "internalType": "address",
          "name": "_first",
          "type": "address"
        },
        {
          "internalType": "address",
          "name": "_second",
          "type": "address"
        },
        {
          "internalType": "address",
          "name": "_third",
          "type": "address"
        }
      ],
      "name": "sendRewards",
      "outputs": [],
      "stateMutability": "nonpayable",
      "type": "function"
    },
    {
      "inputs": [
        {
          "internalType": "contract RabbitRocket",
          "name": "_to",
          "type": "address"
        }
      ],
      "name": "setRabbitRocket",
      "outputs": [],
      "stateMutability": "nonpayable",
      "type": "function"
    },
    {
      "inputs": [
        {
          "internalType": "bytes4",
          "name": "interfaceId",
          "type": "bytes4"
        }
      ],
      "name": "supportsInterface",
      "outputs": [
        {
          "internalType": "bool",
          "name": "",
          "type": "bool"
        }
      ],
      "stateMutability": "view",
      "type": "function"
    },
    {
      "inputs": [
        {
          "internalType": "address",
          "name": "newOwner",
          "type": "address"
        }
      ],
      "name": "transferOwnership",
      "outputs": [],
      "stateMutability": "nonpayable",
      "type": "function"
    },
    {
      "inputs": [
        {
          "internalType": "address payable",
          "name": "payee",
          "type": "address"
        }
      ],
      "name": "withdrawPayments",
      "outputs": [],
      "stateMutability": "nonpayable",
      "type": "function"
    }
  ],
  "bytecode": "0x60a06040523480156200001157600080fd5b506040516200233138038062002331833981016040819052620000349162000466565b6040518060400160405280601881526020017f4052616262697443617463682f52616262697442726565640000000000000000815250604051806040016040528060058152602001640312e302e360dc1b8152508181620000a46200009e620001b960201b60201c565b620001bd565b6040518060800160405280604f8152602001620022e2604f9139805190602001208280519060200120828051906020012030620000e66200020f60201b60201c565b60408051602081019690965285019390935260608401919091526001600160a01b0316608083015260a082015260c0016040516020818303038152906040528051906020012060038190555050505050604051620001449062000458565b604051809103906000f08015801562000161573d6000803e3d6000fd5b5060601b6001600160601b031916608052620001a77f8b8c0776df2c2176edf6f82391c35ea4891146d7a976ee36fd07f1a6fb4ead4c620001a162000213565b62000272565b620001b28162000282565b5062000496565b3390565b600280546001600160a01b038381166001600160a01b0319831681179093556040519116919082907f8be0079c531659141344cd1fd0a4f28419497f9722a3daafe3b4186f6b6457e090600090a35050565b4690565b6000333014156200026c57600080368080601f0160208091040260200160405190810160405280939291908181526020018383808284376000920191909152505050503601516001600160a01b031691506200026f9050565b50335b90565b6200027e828262000303565b5050565b6002546001600160a01b03163314620002e15760405162461bcd60e51b815260206004820181905260248201527f4f776e61626c653a2063616c6c6572206973206e6f7420746865206f776e6572604482015260640160405180910390fd5b600580546001600160a01b0319166001600160a01b0392909216919091179055565b6200031a82826200034660201b62000b2b1760201c565b60008281526001602090815260409091206200034191839062000baf620003e6821b17901c565b505050565b6000828152602081815260408083206001600160a01b038516845290915290205460ff166200027e576000828152602081815260408083206001600160a01b03851684529091529020805460ff19166001179055620003a23390565b6001600160a01b0316816001600160a01b0316837f2f8788117e7eff1d82e926ec794901d17c78024a50270940304540a733656f0d60405160405180910390a45050565b6000620003fd836001600160a01b03841662000406565b90505b92915050565b60008181526001830160205260408120546200044f5750815460018181018455600084815260208082209093018490558454848252828601909352604090209190915562000400565b50600062000400565b6105ef8062001cf383390190565b60006020828403121562000478578081fd5b81516001600160a01b03811681146200048f578182fd5b9392505050565b60805160601c611830620004c36000396000818161071e01528181610a140152610e1601526118306000f3fe60806040526004361061011f5760003560e01c80638da5cb5b116100a0578063ca15c87311610064578063ca15c8731461032b578063d547741f1461034b578063dc2248631461036b578063e2982c211461039f578063f2fde38b146103bf57600080fd5b80638da5cb5b146102845780639010d07c146102b657806391d14854146102d6578063a217fddf146102f6578063ad6856781461030b57600080fd5b80632d0335ab116100e75780632d0335ab146101d95780632f2ff15d1461020f57806331b3eb941461022f57806336568abe1461024f578063715018a61461026f57600080fd5b806301ffc9a7146101245780630c53c51c146101595780631b7101e214610179578063248a9ca31461017b5780632bf6750e146101b9575b600080fd5b34801561013057600080fd5b5061014461013f366004611514565b6103df565b60405190151581526020015b60405180910390f35b61016c6101673660046113ab565b61040a565b604051610150919061167d565b005b34801561018757600080fd5b506101ab6101963660046114ac565b60009081526020819052604090206001015490565b604051908152602001610150565b3480156101c557600080fd5b506101796101d4366004611345565b610688565b3480156101e557600080fd5b506101ab6101f4366004611345565b6001600160a01b031660009081526004602052604090205490565b34801561021b57600080fd5b5061017961022a3660046114c4565b6106d4565b34801561023b57600080fd5b5061017961024a366004611345565b6106ff565b34801561025b57600080fd5b5061017961026a3660046114c4565b61077d565b34801561027b57600080fd5b506101796107fb565b34801561029057600080fd5b506002546001600160a01b03165b6040516001600160a01b039091168152602001610150565b3480156102c257600080fd5b5061029e6102d13660046114f3565b61082f565b3480156102e257600080fd5b506101446102f13660046114c4565b61084e565b34801561030257600080fd5b506101ab600081565b34801561031757600080fd5b50610179610326366004611361565b610877565b34801561033757600080fd5b506101ab6103463660046114ac565b6109b5565b34801561035757600080fd5b506101796103663660046114c4565b6109cc565b34801561037757600080fd5b506101ab7f8b8c0776df2c2176edf6f82391c35ea4891146d7a976ee36fd07f1a6fb4ead4c81565b3480156103ab57600080fd5b506101ab6103ba366004611345565b6109f2565b3480156103cb57600080fd5b506101796103da366004611345565b610a90565b60006001600160e01b03198216635a05180f60e01b1480610404575061040482610bc4565b92915050565b6060600061041786610bf9565b90506000356001600160e01b031990811690821614156104a45760405162461bcd60e51b815260206004820152603d60248201527f66756e6374696f6e5369676e61747572652063616e206e6f74206265206f662060448201527f657865637574654d6574615472616e73616374696f6e206d6574686f6400000060648201526084015b60405180910390fd5b604080516060810182526001600160a01b038916600081815260046020908152908490205483528201529081018790526104e18882888888610c15565b6105375760405162461bcd60e51b815260206004820152602160248201527f5369676e657220616e64207369676e617475726520646f206e6f74206d6174636044820152600d60fb1b606482015260840161049b565b6001600160a01b03881660009081526004602052604090205461055b9060016116c5565b6001600160a01b0389166000908152600460209081526040808320939093559151909182913091610590918c918e910161159c565b60408051601f19818403018152908290526105aa91611580565b6000604051808303816000865af19150503d80600081146105e7576040519150601f19603f3d011682016040523d82523d6000602084013e6105ec565b606091505b50915091508161063e5760405162461bcd60e51b815260206004820152601c60248201527f46756e6374696f6e2063616c6c206e6f74207375636365737366756c00000000604482015260640161049b565b7f5845892132946850460bff5a0083f71031bc5bf9aadcd40f1de79423eac9b10b8a338b60405161067193929190611648565b60405180910390a19998505050505050505050565b565b6002546001600160a01b031633146106b25760405162461bcd60e51b815260040161049b90611690565b600580546001600160a01b0319166001600160a01b0392909216919091179055565b6000828152602081905260409020600101546106f08133610cf1565b6106fa8383610d55565b505050565b6040516351cff8d960e01b81526001600160a01b0382811660048301527f000000000000000000000000000000000000000000000000000000000000000016906351cff8d990602401600060405180830381600087803b15801561076257600080fd5b505af1158015610776573d6000803e3d6000fd5b5050505050565b6001600160a01b03811633146107ed5760405162461bcd60e51b815260206004820152602f60248201527f416363657373436f6e74726f6c3a2063616e206f6e6c792072656e6f756e636560448201526e103937b632b9903337b91039b2b63360891b606482015260840161049b565b6107f78282610d77565b5050565b6002546001600160a01b031633146108255760405162461bcd60e51b815260040161049b90611690565b6106866000610d99565b60008281526001602052604081206108479083610deb565b9392505050565b6000918252602082815260408084206001600160a01b0393909316845291905290205460ff1690565b7f8b8c0776df2c2176edf6f82391c35ea4891146d7a976ee36fd07f1a6fb4ead4c6108a28133610cf1565b600560009054906101000a90046001600160a01b03166001600160a01b031663b4bd9e276040518163ffffffff1660e01b815260040160206040518083038186803b1580156108f057600080fd5b505afa158015610904573d6000803e3d6000fd5b505050506040513d601f19601f82011682018060405250810190610928919061148c565b6109825760405162461bcd60e51b815260206004820152602560248201527f52616262697447726565643a20526162626974526f636b6574204973204e6f746044820152641027bb32b960d91b606482015260840161049b565b610996846109916002476116dd565b610df7565b6109a5836109916002476116dd565b6109af8247610df7565b50505050565b600081815260016020526040812061040490610e78565b6000828152602081905260409020600101546109e88133610cf1565b6106fa8383610d77565b6040516371d4ed8d60e11b81526001600160a01b0382811660048301526000917f00000000000000000000000000000000000000000000000000000000000000009091169063e3a9db1a9060240160206040518083038186803b158015610a5857600080fd5b505afa158015610a6c573d6000803e3d6000fd5b505050506040513d601f19601f82011682018060405250810190610404919061153c565b6002546001600160a01b03163314610aba5760405162461bcd60e51b815260040161049b90611690565b6001600160a01b038116610b1f5760405162461bcd60e51b815260206004820152602660248201527f4f776e61626c653a206e6577206f776e657220697320746865207a65726f206160448201526564647265737360d01b606482015260840161049b565b610b2881610d99565b50565b610b35828261084e565b6107f7576000828152602081815260408083206001600160a01b03851684529091529020805460ff19166001179055610b6b3390565b6001600160a01b0316816001600160a01b0316837f2f8788117e7eff1d82e926ec794901d17c78024a50270940304540a733656f0d60405160405180910390a45050565b6000610847836001600160a01b038416610e82565b60006001600160e01b03198216637965db0b60e01b148061040457506301ffc9a760e01b6001600160e01b0319831614610404565b6000815160001415610c0d57506000919050565b506020015190565b6000806001610c2b610c2688610ed1565b610f4e565b6040805160008152602081018083529290925260ff861690820152606081018790526080810186905260a0016020604051602081039080840390855afa158015610c79573d6000803e3d6000fd5b5050604051601f1901519150506001600160a01b038116610cd05760405162461bcd60e51b8152602060048201526011602482015270496e76616c6964207369676e617475726560781b604482015260640161049b565b866001600160a01b0316816001600160a01b03161491505095945050505050565b610cfb828261084e565b6107f757610d13816001600160a01b03166014610f7e565b610d1e836020610f7e565b604051602001610d2f9291906115d3565b60408051601f198184030181529082905262461bcd60e51b825261049b9160040161167d565b610d5f8282610b2b565b60008281526001602052604090206106fa9082610baf565b610d818282611160565b60008281526001602052604090206106fa90826111c5565b600280546001600160a01b038381166001600160a01b0319831681179093556040519116919082907f8be0079c531659141344cd1fd0a4f28419497f9722a3daafe3b4186f6b6457e090600090a35050565b600061084783836111da565b60405163f340fa0160e01b81526001600160a01b0383811660048301527f0000000000000000000000000000000000000000000000000000000000000000169063f340fa019083906024016000604051808303818588803b158015610e5b57600080fd5b505af1158015610e6f573d6000803e3d6000fd5b50505050505050565b6000610404825490565b6000818152600183016020526040812054610ec957508154600181810184556000848152602080822090930184905584548482528286019093526040902091909155610404565b506000610404565b60006040518060800160405280604381526020016117b86043913980516020918201208351848301516040808701518051908601209051610f31950193845260208401929092526001600160a01b03166040830152606082015260800190565b604051602081830303815290604052805190602001209050919050565b6000610f5960035490565b60405161190160f01b6020820152602281019190915260428101839052606201610f31565b60606000610f8d8360026116fd565b610f989060026116c5565b67ffffffffffffffff811115610fbe57634e487b7160e01b600052604160045260246000fd5b6040519080825280601f01601f191660200182016040528015610fe8576020820181803683370190505b509050600360fc1b8160008151811061101157634e487b7160e01b600052603260045260246000fd5b60200101906001600160f81b031916908160001a905350600f60fb1b8160018151811061104e57634e487b7160e01b600052603260045260246000fd5b60200101906001600160f81b031916908160001a90535060006110728460026116fd565b61107d9060016116c5565b90505b6001811115611111576f181899199a1a9b1b9c1cb0b131b232b360811b85600f16601081106110bf57634e487b7160e01b600052603260045260246000fd5b1a60f81b8282815181106110e357634e487b7160e01b600052603260045260246000fd5b60200101906001600160f81b031916908160001a90535060049490941c9361110a8161175f565b9050611080565b5083156108475760405162461bcd60e51b815260206004820181905260248201527f537472696e67733a20686578206c656e67746820696e73756666696369656e74604482015260640161049b565b61116a828261084e565b156107f7576000828152602081815260408083206001600160a01b0385168085529252808320805460ff1916905551339285917ff6391f5c32d9c69d2a47ea670b442974b53935d1edc7fd64eb21e047a839171b9190a45050565b6000610847836001600160a01b038416611212565b60008260000182815481106111ff57634e487b7160e01b600052603260045260246000fd5b9060005260206000200154905092915050565b6000818152600183016020526040812054801561132557600061123660018361171c565b855490915060009061124a9060019061171c565b90508181146112cb57600086600001828154811061127857634e487b7160e01b600052603260045260246000fd5b90600052602060002001549050808760000184815481106112a957634e487b7160e01b600052603260045260246000fd5b6000918252602080832090910192909255918252600188019052604090208390555b85548690806112ea57634e487b7160e01b600052603160045260246000fd5b600190038181906000526020600020016000905590558560010160008681526020019081526020016000206000905560019350505050610404565b6000915050610404565b803560ff8116811461134057600080fd5b919050565b600060208284031215611356578081fd5b8135610847816117a2565b600080600060608486031215611375578182fd5b8335611380816117a2565b92506020840135611390816117a2565b915060408401356113a0816117a2565b809150509250925092565b600080600080600060a086880312156113c2578081fd5b85356113cd816117a2565b9450602086013567ffffffffffffffff808211156113e9578283fd5b818801915088601f8301126113fc578283fd5b81358181111561140e5761140e61178c565b604051601f8201601f19908116603f011681019083821181831017156114365761143661178c565b816040528281528b602084870101111561144e578586fd5b82602086016020830137918201602001859052509550505060408601359250606086013591506114806080870161132f565b90509295509295909350565b60006020828403121561149d578081fd5b81518015158114610847578182fd5b6000602082840312156114bd578081fd5b5035919050565b600080604083850312156114d6578182fd5b8235915060208301356114e8816117a2565b809150509250929050565b60008060408385031215611505578182fd5b50508035926020909101359150565b600060208284031215611525578081fd5b81356001600160e01b031981168114610847578182fd5b60006020828403121561154d578081fd5b5051919050565b6000815180845261156c816020860160208601611733565b601f01601f19169290920160200192915050565b60008251611592818460208701611733565b9190910192915050565b600083516115ae818460208801611733565b60609390931b6bffffffffffffffffffffffff19169190920190815260140192915050565b7f416363657373436f6e74726f6c3a206163636f756e742000000000000000000081526000835161160b816017850160208801611733565b7001034b99036b4b9b9b4b733903937b6329607d1b601791840191820152835161163c816028840160208801611733565b01602801949350505050565b6001600160a01b0384811682528316602082015260606040820181905260009061167490830184611554565b95945050505050565b6020815260006108476020830184611554565b6020808252818101527f4f776e61626c653a2063616c6c6572206973206e6f7420746865206f776e6572604082015260600190565b600082198211156116d8576116d8611776565b500190565b6000826116f857634e487b7160e01b81526012600452602481fd5b500490565b600081600019048311821515161561171757611717611776565b500290565b60008282101561172e5761172e611776565b500390565b60005b8381101561174e578181015183820152602001611736565b838111156109af5750506000910152565b60008161176e5761176e611776565b506000190190565b634e487b7160e01b600052601160045260246000fd5b634e487b7160e01b600052604160045260246000fd5b6001600160a01b0381168114610b2857600080fdfe4d6574615472616e73616374696f6e2875696e74323536206e6f6e63652c616464726573732066726f6d2c62797465732066756e6374696f6e5369676e617475726529a26469706673582212205743c7fae4a1e4daa10dc77eec708d7141740e70fd80a2be9d555f424297ec5d64736f6c63430008040033608060405234801561001057600080fd5b5061001a3361001f565b61006f565b600080546001600160a01b038381166001600160a01b0319831681178455604051919092169283917f8be0079c531659141344cd1fd0a4f28419497f9722a3daafe3b4186f6b6457e09190a35050565b6105718061007e6000396000f3fe6080604052600436106100555760003560e01c806351cff8d91461005a578063715018a61461007c5780638da5cb5b14610091578063e3a9db1a146100be578063f2fde38b14610102578063f340fa0114610122575b600080fd5b34801561006657600080fd5b5061007a6100753660046104aa565b610135565b005b34801561008857600080fd5b5061007a6101d7565b34801561009d57600080fd5b506000546040516001600160a01b0390911681526020015b60405180910390f35b3480156100ca57600080fd5b506100f46100d93660046104aa565b6001600160a01b031660009081526001602052604090205490565b6040519081526020016100b5565b34801561010e57600080fd5b5061007a61011d3660046104aa565b61020d565b61007a6101303660046104aa565b6102a8565b6000546001600160a01b031633146101685760405162461bcd60e51b815260040161015f906104cd565b60405180910390fd5b6001600160a01b0381166000818152600160205260408120805491905590610190908261033c565b816001600160a01b03167f7084f5476618d8e60b11ef0d7d3f06914655adb8793e28ff7f018d4c76d505d5826040516101cb91815260200190565b60405180910390a25050565b6000546001600160a01b031633146102015760405162461bcd60e51b815260040161015f906104cd565b61020b600061045a565b565b6000546001600160a01b031633146102375760405162461bcd60e51b815260040161015f906104cd565b6001600160a01b03811661029c5760405162461bcd60e51b815260206004820152602660248201527f4f776e61626c653a206e6577206f776e657220697320746865207a65726f206160448201526564647265737360d01b606482015260840161015f565b6102a58161045a565b50565b6000546001600160a01b031633146102d25760405162461bcd60e51b815260040161015f906104cd565b6001600160a01b0381166000908152600160205260408120805434928392916102fc908490610502565b90915550506040518181526001600160a01b038316907f2da466a7b24304f47e87fa2e1e5a81b9831ce54fec19055ce277ca2f39ba42c4906020016101cb565b8047101561038c5760405162461bcd60e51b815260206004820152601d60248201527f416464726573733a20696e73756666696369656e742062616c616e6365000000604482015260640161015f565b6000826001600160a01b03168260405160006040518083038185875af1925050503d80600081146103d9576040519150601f19603f3d011682016040523d82523d6000602084013e6103de565b606091505b50509050806104555760405162461bcd60e51b815260206004820152603a60248201527f416464726573733a20756e61626c6520746f2073656e642076616c75652c207260448201527f6563697069656e74206d61792068617665207265766572746564000000000000606482015260840161015f565b505050565b600080546001600160a01b038381166001600160a01b0319831681178455604051919092169283917f8be0079c531659141344cd1fd0a4f28419497f9722a3daafe3b4186f6b6457e09190a35050565b6000602082840312156104bb578081fd5b81356104c681610526565b9392505050565b6020808252818101527f4f776e61626c653a2063616c6c6572206973206e6f7420746865206f776e6572604082015260600190565b6000821982111561052157634e487b7160e01b81526011600452602481fd5b500190565b6001600160a01b03811681146102a557600080fdfea264697066735822122088702fd4ddcea429b86ffcb261f544be05e79d5fd7b90a9f3a7ecefbe3b90e2c64736f6c63430008040033454950373132446f6d61696e28737472696e67206e616d652c737472696e672076657273696f6e2c6164647265737320766572696679696e67436f6e74726163742c627974657333322073616c7429",
  "linkReferences": {},
  "deployedLinkReferences": {}
}